:100000000C942A000C9447000C9447000C94470071
:100010000C9447000C9447000C9447000C94470044
:100020000C9447000C9447000C9447000C94470034
:100030000C9447000C9447000C9447000C94470024
:100040000C9447000C9447000C9453000C94470008
:100050000C94470011241FBECFE5D4E0DEBFCDBF16
:1000600010E0A0E6B0E0E4EEF0E002C005900D92F2
:10007000A036B107D9F710E0A0E6B0E001C01D92AC
:10008000A036B107E1F70E9449000C9470000C946F
:10009000000081E081BB909A80E28BBF84B78064CE
:1000A00084BF7894FFCF1F920F920FB60F92112446
:1000B0008F939F93AF93BF9312BA8FE39DE0A3E01A
:1000C00081509040A040E1F700C00000909ABF919D
:1000D000AF919F918F910F900FBE0F901F90189529
:0400E000F894FFCFC2
:00000001FF
