:100000000C942A000C9447000C9447000C94470071
:100010000C9447000C9447000C9447000C94470044
:100020000C9447000C9449000C9447000C94470032
:100030000C9447000C9447000C9447000C94470024
:100040000C9447000C9447000C9447000C94470014
:100050000C94470011241FBECFE5D4E0DEBFCDBF16
:1000600010E0A0E6B0E0E6EEF0E002C005900D92F0
:10007000A036B107D9F710E0A0E6B0E001C01D92AC
:10008000A036B107E1F70E9467000C9471000C9450
:1000900000001F920F920FB60F9211248F939F931F
:1000A000AF93BF9381E088BB8FEF93EDA0E38150C6
:1000B0009040A040E1F700C0000018BABF91AF9196
:1000C0009F918F910F900FBE0F901F90189581E018
:1000D00087BB83B7856083BF89B7816089BF789408
:0600E000F8CFF894FFCFF9
:00000001FF
