:100000000C9434000C9451000C9451000C94510049
:100010000C9451000C9451000C9451000C9451001C
:100020000C9451000C9451000C9451000C9451000C
:100030000C9451000C9451000C9451000C945100FC
:100040000C9451000C9451000C9451000C945100EC
:100050000C9451000C9451000C9451000C945100DC
:100060000C9451000C94510011241FBECFEFD8E026
:10007000DEBFCDBF11E0A0E0B1E0EAEDF0E002C0EC
:1000800005900D92A030B107D9F711E0A0E0B1E0E2
:1000900001C01D92A030B107E1F70E9453000C94FB
:1000A0006B000C94000087B117B8ECE7F0E080819A
:1000B00080668083EAE7F0E080818768808384B58A
:1000C000836884BD85B58D5F85BD8AB11AB880818E
:0A00D00080648083FFCFF894FFCF17
:00000001FF
