:100000000C942A000C9447000C9447000C94470071
:100010000C9447000C9447000C9447000C94470044
:100020000C9447000C9447000C9447000C94470034
:100030000C9447000C9447000C9447000C94470024
:100040000C9447000C9447000C9447000C94470014
:100050000C94470011241FBECFE5D4E0DEBFCDBF16
:1000600010E0A0E6B0E0E8EDF0E002C005900D92EF
:10007000A036B107D9F710E0A0E6B0E001C01D92AC
:10008000A036B107E1F70E9449000C946A000C9475
:100090000000BB9A87B1856687B986B1876886B943
:1000A00083B78D6683BF369A3699FECF24B185B16A
:1000B00090E0880F991F880F991F22952695269505
:1000C000237030E0822B932B959587959595879596
:0800D0008CBFE9CFF894FFCFCB
:00000001FF
