:100000000C942A000C9447000C9447000C94470071
:100010000C9447000C9447000C9447000C94470044
:100020000C9447000C9447000C9447000C94470034
:100030000C9447000C9447000C9447000C94470024
:100040000C9447000C9447000C9447000C94470014
:100050000C94470011241FBECFE5D4E0DEBFCDBF16
:1000600010E0A0E6B0E0E2EDF0E002C005900D92F5
:10007000A036B107D9F710E0A0E6B0E001C01D92AC
:10008000A036B107E1F70E9449000C9467000C9478
:10009000000084E090E03FEF23E037BB28BB4FEF48
:1000A00053ED60E3415050406040E1F700C0000074
:1000B00018BA4FEF53ED60E3415050406040E1F714
:1000C00000C00000019749F780E090E00895F8949F
:0200D000FFCF60
:00000001FF
