:100000000C942A000C9447000C9447000C94470071
:100010000C9447000C9447000C9447000C94470044
:100020000C9447000C9447000C9447000C94470034
:100030000C9447000C9447000C9447000C94470024
:100040000C9447000C9447000C9447000C94470014
:100050000C94470011241FBECFE5D4E0DEBFCDBF16
:1000600010E0A0E6B0E0E8EDF2E002C005900D92ED
:10007000A036B107D9F710E0A0E6B0E001C01D92AC
:10008000A036B107E1F70E9449000C946A010C9474
:100090000000CF93DF93CDB7DEB728970FB6F89463
:1000A000DEBF0FBECDBF17BA198281E08A8382E01E
:1000B0008B8383E08C8384E08D8385E08E8386E070
:1000C0008F8387E0888718BAEE24FF24E39462E0E8
:1000D00070E021E030E0E5E0F0E0EC0FFD1FEE0D18
:1000E000FF1DA901008002C0440F551F0A94E2F7CA
:1000F000E1E0F0E0EC0FFD1FE60FF71FC901008003
:1001000002C0880F991F0A94E2F7842B8ABBC901A9
:10011000008002C0880F991F0A94E2F78BBBB09948
:1001200034C0FB01319681E090E08C0F9D1FE80FF9
:10013000F91F05E010E00C0F1D1F0E0D1F1DA9017A
:10014000029002C0440F551F0A94E2F7C901D8017A
:100150000C9002C0880F991F0A94E2F7842B8ABB87
:10016000C901008002C0880F991F0A94E2F78BBB77
:100170008FE996E8A1E081509040A040E1F700C0EF
:10018000000061507040B09BDACFB19935C0F701E3
:100190003196A5E0B0E0AC0FBD1FEA0FFB1F01E0F8
:1001A00010E00C0F1D1F060F171FA901029002C0BF
:1001B000440F551F0A94E2F7C901D8010C9002C000
:1001C000880F991F0A94E2F7842B8ABBC9010C900F
:1001D00002C0880F991F0A94E2F78BBB8FE996E85B
:1001E000A1E081509040A040E1F700C000000894D9
:1001F000E108F108B19BD9CFB29934C0E1E0F0E059
:10020000EC0FFD1FE60FF71F05E010E00C0F1D1FA0
:100210000E0D1F1D6F01A901019002C0440F551F53
:100220000A94E2F7C901D8010C9002C0880F991F07
:100230000A94E2F7842B8ABBC901D6010C9002C054
:10024000880F991F0A94E2F78BBB8FE996E8A1E02B
:1002500081509040A040E1F700C000006F5F7F4FE9
:10026000B29BD8CFB39937CFC7010196E5E0F0E054
:10027000EC0FFD1FE80FF91F01E010E00C0F1D1F30
:10028000060F171FA901029002C0440F551F0A94C0
:10029000E2F7C901D8010C9002C0880F991F0A9497
:1002A000E2F7842B8ABBC9010C9002C0880F991F0A
:1002B0000A94E2F78BBB8FE996E8A1E08150904069
:1002C000A040E1F700C000000894E108F108B399EC
:0802D00002CFD8CFF894FFCF54
:00000001FF
