:100000000C942A000C9447000C9447000C94470071
:100010000C9447000C9447000C9447000C94470044
:100020000C9447000C9447000C9447000C94470034
:100030000C9447000C9447000C9447000C94470024
:100040000C9447000C9447000C9447000C94470014
:100050000C94470011241FBECFE5D4E0DEBFCDBF16
:1000600010E0A0E6B0E0E8ECF0E002C005900D92F0
:10007000A036B107D9F710E0A0E6B0E001C01D92AC
:10008000A036B107E1F70E9449000C9462000C947D
:1000900000002FEF95E58AEA27BB98BB4FEF53EDA1
:1000A00060E3415050406040E1F700C0000088BB71
:1000B0004FEF53ED60E3415050406040E1F700C026
:0800C0000000EACFF894FFCF25
:00000001FF
