:100000000C942A000C9447000C9447000C94470071
:100010000C9447000C9447000C9447000C94470044
:100020000C9447000C9447000C9449000C94470032
:100030000C9447000C9447000C9447000C94470024
:100040000C9447000C9447000C9447000C94470014
:100050000C94470011241FBECFE5D4E0DEBFCDBF16
:1000600010E0A0E6B0E0E4E0F1E002C005900D92FF
:10007000A036B107D9F710E0A0E6B0E001C01D92AC
:10008000A036B107E1F70E9466000C9480000C9442
:1000900000001F920F920FB60F9211248F939F931F
:1000A000AF93BF93D99A8FE39DE0A3E08150904036
:1000B000A040E1F700C000001BBABF91AF919F9133
:1000C0008F910F900FBE0F901F9018958AB3836089
:1000D0008ABB80E287BB90EC22E09DB9779BFECF84
:1000E00078948FB18F3FC9F72BBB4FE35DE063E09E
:1000F000415050406040E1F700C000001BBAEDCF16
:04010000F894FFCFA1
:00000001FF
